029code000natabcdefghijklmno 0000000183746900EX13B1620133384718329PLACESTMATHIEUQUIMPEREAGRIFR  882FR7618206002105487266700217       LE PETIT MATADOR                                                      Adresse du titulaire                                                                                                                        FRID                                 LE PETIT MATADOR                                                      Adresse du beneficia                                                                                                                        FRIdentification                     libelle operation j j                                                                                                                       libelle complementaire                                                                                                                                                                                                           F
029code000natabcdefghijklmnoF0000000183746900EX13B3209491212121229PLACESTMATHIEUQUIMPEREAGRIFR  882FR7618206002105487266700217       LE PETIT MATADOR                                                      Adresse du titulaire                                                                                                                        FRID                                 jean du jardin                                                     Adresse du beneficia                                                                                                                        FRIdentification                     libelle operation j j                                                                                                                       libelle complementaire                                                                                                                                                        F
029code000natabcdefghijklmnoE0000000183746900EX13C0493240412938429PLACESTMATHIEUQUIMPEREAGRIFR  882FR7618206002105487266700217       LE PETIT MATADOR                                                      Adresse du titulaire                                                                                                                        FRID                                 Philippe Maurice                                                      Adresse du beneficia                                                                                                                        FRIdentification                     libelle operation j j                                                                                                                       libelle complementaire                                                                                                                                                                                                           F
029code000natabcdefghijklmnoE0000000183746900EX13C094328jc14391029PLACESTMATHIEUQUIMPEREAGRIFR  882FR7618206002105487266700217       LE PETIT MATADOR                                                      Adresse du titulaire                                                                                                                        FRID                                 Jean michel Jarre                                                     Adresse du beneficia                                                                                                                        FRIdentification                     libelle operation j j                                                                                                                       libelle complementaire                                                                                                                                                                                                           F
029code000natabcdefghijklmnoE0000000183746900EX13JJ289807798738729PLACESTMATHIEUQUIMPEREAGRIFR  882FR7618206002105487266700217       LE PETIT MATADOR                                                      Adresse du titulaire                                                                                                                        FRID                                 Charly Parker                                                         Adresse du beneficia                                                                                                                        FRIdentification                     libelle operation j j                                                                                                                       libelle complementaire                                                                                                                                                                                                           F
029code000natabcdefghijklmnoE0000000183746900EX13dudazuy9863216729PLACESTMATHIEUQUIMPEREAGRIFR  882FR7618206002105487266700217       LE PETIT MATADOR                                                      Adresse du titulaire                                                                                                                        FRID                                 L'homme qui valait 3 miliards                                         Adresse du beneficia                                                                                                                        FRIdentification                     libelle operation j j                                                                                                                       libelle complementaire                                                                                                                                                                                                           F
029code000natabcdefghijklmnoE0000000183746900EX1312349009847124729PLACESTMATHIEUQUIMPEREAGRIFR  882FR7618206002105487266700217       LE PETIT MATADOR                                                      Adresse du titulaire                                                                                                                        FRID                                 Billy the kid                                                         Adresse du beneficia                                                                                                                        FRIdentification                     libelle operation j j                                                                                                                       libelle complementaire                                                                                                                                                                                                           F
029code000natabcdefghijklmnoE0000000183746900EX13B1620133384718329PLACESTMATHIEUQUIMPEREAGRIFR  882FR7618206002105487266700217       LE PETIT MATADOR                                                      Adresse du titulaire                                                                                                                        FRID                                 LE PETIT MATADOR                                                      Adresse du beneficia                                                                                                                        FRIdentification                     libelle operation j j                                                                                                                       libelle complementaire                                                                                                                                                                                                           F
029code000natabcdefghijklmnoE0000000183746900EX13B3209491212121229PLACESTMATHIEUQUIMPEREAGRIFR  882FR7618206002105487266700217       LE PETIT MATADOR                                                      Adresse du titulaire                                                                                                                        FRID                                 Nourredine le chico                                                     Adresse du beneficia                                                                                                                        FRIdentification                     libelle operation j j                                                                                                                       libelle complementaire                                                                                                                                                                                                         F
029code000natabcdefghijklmnoE0000000183746900EX13C0493240412938429PLACESTMATHIEUQUIMPEREAGRIFR  882FR7618206002105487266700217       LE PETIT MATADOR                                                      Adresse du titulaire                                                                                                                        FRID                                 Philippe Maurice                                                      Adresse du beneficia                                                                                                                        FRIdentification                     libelle operation j j                                                                                                                       libelle complementaire                                                                                                                                                                                                           F
029code000natabcdefghijklmnoE0000000183746900EX13C094328jc14391029PLACESTMATHIEUQUIMPEREAGRIFR  882FR7618006002105487266700217       LE PETIT MATADOR                                                      Adresse du titulaire                                                                                                                        FRID                                 Jean michel Jarre                                                     Adresse du beneficia                                                                                                                        FRIdentification                     libelle operation j j                                                                                                                       libelle complementaire                                                                                                                                                                                                           F
029code000natabcdefghijklmnoE0000000183746900EX13JJ289807798738729PLACESTMATHIEUQUIMPEREAGRIFR  882FR7618206002105F
029code000natabcdefghijklmnoE0000000183746900EX13dudazuy9863216729PLACESTMATHIEUQUIMPEREAGRIFR  882FR7618206002105487266700217       LE PETIT MATADOR                                                      Adresse du titulaire                                                                                                                        FRID                                 L'homme qui valait 3 miliards                                         Adresse du beneficia                                                                                                                        FRIdentification                     libelle operation j j                                                                                                                       libelle complementaire                                                                                                                                                                                                           F
029code000natabcdefghijklmnoE0000000183746900EX1312349009847124729PLACESTMATHIEUQUIMPEREAGRIFR  882FR7618206002105487266700217       LE PETIT MATADOR                                                      Adresse du titulaire                                                                                                                        FRID                                 Billy the kid                                                         Adresse du beneficia                                                                                                                        FRIdentification                     libelle operation j j                                                                                                                       libelle complementaire                                                                                                                                                                                                           F